:1000000012C02DC02BC02AC029C028C027C026C0BE
:1000100025C024C023C022C021C020C01FC01EC0D4
:100020001DC01CC01BC011241FBECFE5D4E0DEBF25
:10003000CDBF10E0A0E6B0E0EAEBF2E002C0059030
:100040000D92A436B107D9F710E0A4E6B0E001C0E4
:100050001D92AD36B107E1F7E1D02DC1D1CF1F928E
:100060000F920FB60F9211248F9381E0809364005A
:100070008F910F900FBE0F901F90189584B38F61D2
:1000800084BB85B38F6185BB81B3807E81BB0895BE
:1000900020B380B340B360B390E0887090709595C2
:1000A00087959595879530E02071307054E03595AF
:1000B00027955A95E1F7822B50E042705070440F1B
:1000C000551F842B70E06170707093E0660F771F8E
:1000D0009A95E1F7862B0895CF92DF92FF920F93C6
:1000E0001F93CF93DF93EC01FF24F394E1E0CE2E36
:1000F000D12C829BFECF8299FECF8091640081300B
:10010000E9F40F2D10E0015010400C0F1D1FC0DF4F
:10011000F801808325B3C6010F2C02C0880F991FF8
:100120000A94E2F78095822385BB10926400808157
:100130008B3021F485B38F6185BBFF24F394F4E009
:10014000FF15B8F680ED97E028EC30E0F901319723
:10015000F1F70197D9F785B38F6185BBDF91CF9117
:100160001F910F91FF90DF90CF900895CF93DF9371
:10017000EC0140E020E030E0FE01E20FF31FDB0184
:10018000A20FB31F90818C91981711F040E001C02D
:100190004F5F2F5F3F4F2430310571F780E04430CF
:1001A00009F481E0DF91CF910895A89880E69AEE56
:1001B00028EC30E0F9013197F1F70197D9F7A89AC7
:1001C00085B38F6185BB0895CF93DF93F894C0E02A
:1001D000D0E0CE015BD0FE01E759FF4F808321962E
:1001E000C430D105B1F77894DF91CF910895F89498
:1001F00080E090E06091690051D081E090E06091F2
:100200006A004CD082E090E060916B0047D083E0C0
:1002100090E060916C0042D0789408951F93CF9342
:10022000DF938BB780648BBF85B7826085BF26DF85
:10023000CBDF1EE1C8ECD0E085E690E04DDF85E63F
:1002400090E069E670E092DF882311F0AEDFF4CF32
:1002500085E690E060E670E089DF882329F089E692
:1002600090E03ADFC4DFE8CF20E085B3812785BB8B
:1002700088E893E1FE013197F1F70197D9F72F5FF5
:100280002A3099F785B38F6185BBD6CFE199FECF30
:100290009FBB8EBBE09A99278DB30895262FE199D5
:1002A000FECF9FBB8EBB2DBB0FB6F894E29AE19AAE
:0A02B0000FBE01960895F894FFCFE9
:0402BA000C0D0E0F0A
:00000001FF
